:020000040000FA
:06000000D4EF16F012001F
:0600080004EF08F01200F5
:060018000CEF08F01200DD
:06100000D4EF16F012000F
:021006001200D6
:061008004FEF11F0120091
:02100E00D59E6D
:04101000F29A12003E
:0410140000000000D8
:06101800A6EF11F012002A
:02101E000200CE
:10102000F82D0000C80500000400000014100000A6
:08103000C405000004000000EB
:08103800D9CFE6FFE1CFD9FF9B
:10104000E652A394676A656A6A6A010EE66EE66A0A
:10105000E66A6B0EE66E0F0EE66EAAEC16F00B6EED
:10106000050EE15E0B50160E626E9F0E666E7B0ED5
:10107000646EDF6ADF500B6E0C6A080E0B5C000EAC
:101080000C5810E2DF50040DF3CFE9FFF4CFEAFF74
:10109000000EE926040EEA22EE6AEE6AEE6AEE6AB5
:1010A000DF2AE8D7608C636A6098609C65A607D0E9
:1010B00065960501936B986B996B9A6BF7D7050151
:1010C000010EAA6FAB6FAC6BAD6BA06BDF6A020E4B
:1010D000DF5C26E2EA6ADF34FE0BEA36E96E8B0E4D
:1010E000E926050EEA22EE6AED6AEA6ADF34FE0BB3
:1010F000EA36E96E870EE926050EEA22EE6AED6A07
:10110000DF50EA6AA40FE96E050EEA22EF6ADF50AB
:10111000EA6AA60FE96E050EEA22EF6ADF2AD7D740
:101120000501080E8B6F040E8C6F160E6A6E04019B
:10113000200E026F040E036F080E016F840E006F05
:101140000501816B806BE552E552E7CFD9FF1200B4
:10115000D9CFE6FFE1CFD9FFE6520501800507E1CF
:1011600060BA05D0656A64806488020E806F65503D
:10117000040B06E06450040B03E065948EEC0EF063
:1011800060B259D06550010B09E06450010B06E0D4
:1011900053DFA3840501040E806F65906550100B2A
:1011A00006E06450100B03E079EC0EF0659865AC36
:1011B00019D064AC0FD0010EE66EE66A000EE66E42
:1011C000E66A730EE66EE66A6AEC13F00B6E060EC4
:1011D000E15E0B50659C0501A85101E0A807A851EC
:1011E00001E1FBD96550200B05E06450200B02E0C3
:1011F00060EC0EF06550020B13E06450020B10E03F
:10120000010EE66EE66A000EE66EE66AE6687F0E9E
:10121000E66E6AEC13F00B6E060EE15E0B50676A29
:10122000040E0501E76E8019E8AE02D0E73402D063
:10123000E750805D02E2A49439D064A636D0DF6A1C
:10124000040EDF5C32E265A630D061CFA1F5050166
:10125000A151780BE842E842E842A26F6596A1B539
:1012600006D0A251EA6AA60FE96E050E05D0A2517A
:10127000EA6AA40FE96E050EEA22EF70A25103E1BB
:10128000A5EC0EF010D0000EE66EE66AA10EE66E3A
:10129000050EE66E720EE66EE66A6AEC13F00B6EF1
:1012A000060EE15E0B50DF2ACBD7A494E552E5523F
:1012B000E7CFD9FF1200D9CFE6FFE1CFD9FF020E69
:1012C000E126FD0EDBA407D0E66AFE0EDBCFE6FFCB
:1012D00013DAE552E552FD0EDBA208D0010EE66EF0
:1012E000FE0EDBCFE6FF08DAE552E552FE0EDB50DC
:1012F0000C6A6A0F0B6E0F0E0C220BC0DEFF0CC0C7
:10130000DDFFDECFE9FFDDCFEAFFFD0EDBCFEFFF34
:10131000020EE15C02E2E16AE552E16EE552E7CFDE
:10132000D9FF1200D9CFE6FFE1CFD9FF020EE126A7
:10133000FD0EDB500AE0FE0EEA6ADB34FE0BEA36F5
:10134000E96E8B0EE926050E09D0FE0EEA6ADB3443
:10135000FE0BEA36E96E870EE926050EEA22EECF8D
:10136000DEFFEDCFDDFFD9CFE9FFDACFEAFFEE50A8
:10137000ED1003E1F36AF46A44D0DECFE9FFDDCF7C
:10138000EAFF020EE926000EEA22FB0EDBCFEEFF9B
:10139000FC0EDBCFEDFFDECFE9FFDDCFEAFFEE5243
:1013A000FA0EDBCFEFFF400EDECFE9FFDDCFEAFF25
:1013B000E850EF16880EDECFE9FFDDCFEAFFE850F8
:1013C000EF12FD0EDB500AE0FE0EEA6ADB34FE0B84
:1013D000EA36E96E8B0EE926050E09D0FE0EEA6AA2
:1013E000DB34FE0BEA36E96E870EE926050EEA22AB
:1013F000EF74DECF0BF0DDCF0CF00BC0F3FF0CC0B1
:10140000F4FF020EE15C02E2E16AE552E16EE552B0
:10141000E7CFD9FF1200D9CFE6FFE1CFD9FF020E07
:10142000E126FE0EDB5020E185C5E9FF86C5EAFF17
:10143000EE52080EEF6E85C5E9FF86C5EAFF020E83
:10144000E926000EEA22200EEE6E040EED6E85C532
:10145000E9FF86C5EAFF8C0EEF6E8BC5E9FF8CC5F0
:10146000EAFF840EEF6E3BD0FD0EDB50E8240D6EDC
:10147000FE0EDB50040DF3500D24040DF3CF0BF0E2
:10148000F4CF0CF0000E0B26040E0C220BC0DEFF76
:101490000CC0DDFF840EDECFE9FFDDCFEAFFE850B0
:1014A000EF12FD0EDB50E8240D6EFE0EDB50040D36
:1014B000F3500D24010F040DF3CF0BF0F4CF0CF01B
:1014C000000E0B26040E0C220BC0DEFF0CC0DDFF4D
:1014D000840EDECFE9FFDDCFEAFFE850EF12020E07
:1014E000E15C02E2E16AE552E16EE552E7CFD9FF45
:1014F0001200D9CFE6FFE1CFD9FF60A84ED0FE0E93
:10150000EA6ADB34FE0BEA36E96E8B0EE926050E3D
:10151000EA22EE50EFCFEAFFE96E400EEE16EE6AD9
:10152000EE6AEE6AFE0EEA6ADB34FE0BEA36E96E1C
:101530008B0EE926050EEA22EE50EFCFEAFFE96EA8
:10154000EE7CFE0EEA6ADB34FE0BEA36E96E8B0EA9
:10155000E926050EEA22EF74400E0B6EFE0EEA6AD3
:10156000DB34FE0BEA36E96E8B0EE926050EEA2225
:10157000EE50EFCFEAFFE96E0B50EF16FE0EEA6A6F
:10158000DB34FE0BEA36E96E8B0EE926050EEA2205
:10159000EE50EFCFEAFFE96EEF7CE552E7CFD9FFDF
:1015A0001200606A646A0501806B120005018051B7
:1015B00013E1606A646A160E626E9F0E666E7B0EA1
:1015C000646ED08EA584A384F28E60B602D060864D
:1015D000FCD70501010E806F12000501AA514DE1F3
:1015E000010EAA6FAB5149E1010EAB6F020E905D87
:1015F0000DE18BC5E9FF8CC5EAFFEE52EF6A8BC5A2
:10160000E9FF8CC5EAFFC80EEF6E1200900535E1C8
:10161000A36B83C5E9FF84C5EAFFEE52080EEF6EA7
:1016200083C5E9FF84C5EAFF020EE926000EEA221F
:10163000200EEE6E040EED6E83C5E9FF84C5EAFF51
:10164000840EEF6E010EA36F85C5E9FF86C5EAFF24
:10165000EE52080EEF6E85C5E9FF86C5EAFF020E61
:10166000E926000EEA22200EEE6E040EED6E85C510
:10167000E9FF86C5EAFF800EEF6E12000501AC6B34
:10168000AD6B020E905D18E185C5E9FF86C5EAFFE6
:10169000EE52080EEF6E85C5E9FF86C5EAFF020E21
:1016A000E926000EEA22280EEE6E040EED6E85C5C8
:1016B000E9FF86C5EAFF1DD094510401265D0501AE
:1016C00095510401275904E226C494F527C495F5E1
:1016D000CAD88BC5E9FF8CC5EAFF020EE926000EC9
:1016E000EA22280EEE6E040EED6E8BC5E9FF8CC566
:1016F000EAFFC80EEF6E1200D9CFE6FFE1CFD9FFA7
:10170000020EE126000EDE6E040EDD6EFD0EDB50D5
:10171000E8240D6EFE0EDB50040DF3500D24040D75
:10172000F4CF0CF0D9CFE9FFDACFEAFFF350EE2681
:101730000C50ED22DECFE9FFDDCFEAFFEF9EFD0E7C
:10174000DB500AE1FE0EEA6ADB34FE0BEA36E96E94
:10175000870EE926050E09D0FE0EEA6ADB34FE0B81
:10176000EA36E96E8B0EE926050EEA22DECFEEFFA1
:10177000DDCFEDFFDECFE9FFDDCFEAFFEF9CDECF6F
:10178000E9FFDDCFEAFF040EE926000EEA22EF8C26
:10179000020EE15C02E2E16AE552E16EE552E7CF5A
:1017A000D9FF12006098050193BF2BD098AF09D0E4
:1017B000020E906FAD5101E161DF0501AB6BAA6BC9
:1017C000120085C5E9FF86C5EAFFEE52080EEF6EEE
:1017D00085C5E9FF86C5EAFF020EE926000EEA226A
:1017E000200EEE6E040EED6E85C5E9FF86C5EAFF9C
:1017F0008C0EEF6E8BC5E9FF8CC5EAFF840EEF6E91
:101800001200040120AF0DD00501010E906FAC5104
:1018100001E134DF0501AB6BAA6BA95123E1EDEFC8
:101820000AF00501020E906F85C5E9FF86C5EAFF43
:10183000EE52080EEF6E85C5E9FF86C5EAFF020E7F
:10184000E926000EEA22200EEE6E040EED6E85C52E
:10185000E9FF86C5EAFF840EEF6EAB6BAA6BA95158
:1018600001E1BBDE1200D9CFE6FFE1CFD9FFE6529E
:10187000080EDF6E0501945D000E95590AE294C5CD
:10188000DFFF8F5102E1010E03D08F0502E1020E4E
:101890008F6FDF500C6AE850945D946F0C5095592F
:1018A000956F8BC5E9FF8CC5EAFFEE52DFCFEFFFE6
:1018B000280E9D6F040E9E6F93B118D0DF502DE05F
:1018C00091C5F6FF92C5F7FF912B000E92230800F9
:1018D000F550E66E9DC5E9FF9EC5EAFF9D2B000E03
:1018E0009E23E552E750EF6EDF06E8D7DF5015E0A4
:1018F00091C5E9FF92C5EAFF912B000E9223EF50AC
:10190000E66E9DC5E9FF9EC5EAFF9D2B000E9E2356
:10191000E552E750EF6EDF06E9D7E552E552E7CF33
:10192000D9FF1200D9CFE6FFE1CFD9FF020EE126A1
:1019300083C5E9FF84C5EAFFEE52EFCFDFFFDFCFBB
:101940000BF00B500501995D000E9A5902E299C502
:10195000DFFFDF500B6E0C6AE850995D996F0C50F9
:101960009A599A6F010EDB6ADF50F36E010EDBCFDE
:10197000F4FFF350F45C16E2010EDB50EA6A280F24
:10198000E96E040EEA22EF50E66E96C5E9FF97C5B0
:10199000EAFF962B000E9723E552E750EF6E010EFB
:1019A000DB2AE2D7000ED8809955000E9A5527E21F
:1019B00085C5E9FF86C5EAFFEE52080EEF6E85C5C4
:1019C000E9FF86C5EAFF020EE926000EEA22280E8C
:1019D000EE6E040EED6E83C5E9FF84C5EAFFEF509D
:1019E000400B06E185C5E9FF86C5EAFFC80E05D0B4
:1019F00085C5E9FF86C5EAFF880EEF6E28D085C54C
:101A0000E9FF86C5EAFFEE52080EEF6E85C5E9FFD5
:101A100086C5EAFF020EE926000EEA22200EEE6ECF
:101A2000040EED6E85C5E9FF86C5EAFF840EEF6EF4
:101A30009B519C1107E005D09CC5FAFF05019B5105
:101A4000F96EFADF0501989FA95101E1C6DD020E8A
:101A5000E15C02E2E16AE552E16EE552E7CFD9FFCF
:101A60001200D9CFE6FFE1CFD9FFE6520501938FEF
:101A7000010EE66EE66AE66A6B0EE66E0F0EE66E25
:101A8000AAEC16F00B6E050EE15E0B50200EE66E12
:101A9000E66AE66A000EE66E040EE66EAAEC16F042
:101AA0000B6E050EE15E0B50608CDF6A020EDF5C90
:101AB00010E2DF50EA6AA40FE96E050EEA22EF6A2F
:101AC000DF50EA6AA60FE96E050EEA22EF6ADF2A06
:101AD000EDD7010EE66EE66AE66A820EE66E050E48
:101AE000E66EAAEC16F00B6E050EE15E0B50609CE4
:101AF0000501080E8B6F040E8C6F000E836F040EB1
:101B0000846F83C585F5866F22C481F5815102E11A
:101B1000100E12D0010EE66EE66A810EE66E050E1C
:101B2000E66E010EE66EE66A6AEC13F00B6E060EC8
:101B3000E15E0B500501200E806FE552E552E7CFC4
:101B4000D9FF1200800E0401205D58E10501C00E8E
:101B5000936F04012351030A2FE0010A09E0030AED
:101B60004BE10501220E916F2B0E926F120E3ED0AB
:101B70002251F66EF76AD890F636F736BF0EF62683
:101B80002B0EF7220900F5CF91F50A00F5CF92F55B
:101B9000020E0501F76A9125F66E9251F7220800B0
:101BA000F5CF94F5030EF76A9125F66E9251F72260
:101BB0000800F5CF95F51200030E225D1AE22251BE
:101BC000F66EF76AD890F636F736C10EF6262B0E6B
:101BD000F7220900F5CF91F50A00F5CF92F591C5EE
:101BE000F6FF92C5F7FF0800F5500501946F956B5D
:101BF00012000501936B12000501936B1200D9CFFF
:101C0000E6FFE1CFD9FF020EE1260401286B296B24
:101C100020511F0B020A11E0030A0CE0010A3CE10B
:101C20000501938F0401288105019F0535E1040119
:101C3000288332D00501938F2FD00501938F0401A3
:101C400024BF0BD024510F0BE96EEA6AD890E93615
:101C5000EA36870EE926050E0AD024510F0BE96EED
:101C6000EA6AD890E936EA368B0EE926050EEA22B2
:101C7000EECFDEFFEDCFDDFFDECFE9FFDDCFEAFF08
:101C8000EF50800B09E0DECFE9FFDDCFEAFFEF5038
:101C9000040B02E0010E286F050193AF07D0280E58
:101CA000916F040E926F9381020E946F020EE15CAD
:101CB00002E2E16AE552E16EE552E7CFD9FF120098
:101CC0006AA015D083C5E9FF84C5EAFFEF508008FC
:101CD0000DE18BC5E9FF8CC5EAFFEF50840806E1F2
:101CE00083C5E9FF84C5EAFF8C0EEF6E6A90659AA2
:101CF00012006484659860820501010EA06F000ED9
:101D0000E66EE66AE66EE66A750EE66EE66A6AEC0E
:101D100013F00B6E060EE15E0B5012000501A06B76
:101D2000000EE66EE66AE66EE66A740EE66EE66A37
:101D30006AEC13F00B6E060EE15E0B506092649439
:101D400065A402D06594FCD71200D9CFE6FFE1CF9D
:101D5000D9FFE65205012D0EA86FFD0EA11553E126
:101D60007E0EA115E8407F0B040DF3CF83F5F4CF71
:101D700084F5000E8327040E842383C585F584C56E
:101D800086F5857583C5E9FF84C5EAFFEF503C0BF6
:101D9000E842E8420D0835E1DF6A080EDF5C23E225
:101DA00083C5E9FF84C5EAFF020EE926000EEA2298
:101DB000EE50EFCFEAFFE96EEF50E66EDF50EA6AD1
:101DC000200FE96E040EEA22E552E750EF6E83C55C
:101DD000E9FF84C5EAFF020EE926000EEA22EE2A98
:101DE000EF22DF2ADAD783C5E9FF84C5EAFF020EB6
:101DF000E926000EEA22200EEE6E040EED6E0DD8DE
:101E000007D03AD805D0FD0EA115040801E159D834
:101E1000E552E552E7CFD9FF120005018F6BA96BA0
:101E2000AC6BAD6BA36B906B8BC5E9FF8CC5EAFF08
:101E3000EF9E8B758BC5E9FF8CC5EAFFEF9E8B7516
:101E400085C5E9FF86C5EAFFEF9E936B946B956BA2
:101E5000986B996B9A6B8CD8000EE66EE66AE66E0C
:101E6000E66A030EE66EE66A6AEC13F00B6E060E87
:101E7000E15E0B50D2EF0BF0020E0501905D02E126
:101E800092EF0CF0906BA3511AE185C5E9FF86C56E
:101E9000EAFFEE52080EEF6E85C5E9FF86C5EAFF40
:101EA000020EE926000EEA22200EEE6E040EED6E02
:101EB00085C5E9FF86C5EAFF8C0EEF6E1200A36BA5
:101EC0001200D9CFE6FFE1CFD9FFE6528BC5E9FF7B
:101ED0008CC5EAFFEF50400B01E0010EDF6E0501FB
:101EE0008B75080E805D08E122C463FF635002E039
:101EF000100E01D0040E806F900526E18BC5E9FF1E
:101F00008CC5EAFF020EE926000EEA22280EEE6ECC
:101F1000040EED6EA8DC020E05018F5D06E18BC597
:101F2000E9FF8CC5EAFF840E0DD0DF5006E18BC5BA
:101F3000E9FF8CC5EAFFC80E05D08BC5E9FF8CC54B
:101F4000EAFF880EEF6E0FD098AF0CD09B519C111A
:101F500007E005D09CC5FAFF05019B51F96EFADF39
:101F60000501989F906BE552E552E7CFD9FF12002B
:101F700004012051600BE842E842E842E842E842AE
:101F8000000901E0120021510C0A50E00B0A3FE069
:101F90000C0A31E0010A22E00B0A1EE0020A1CE0F2
:101FA000030A18E0080A10E0010A0CE00F0A08E032
:101FB000030A01E012000501938F080E806F1200E2
:101FC000A2EF0DF031EF0DF00501810E916F050EBE
:101FD000926F0CD0FFEF0DF017EF10F024510501B8
:101FE000916F926B820E9127050E92239381010EC1
:101FF000946F938F12000501938F04012451EA6AB4
:10200000820FE96E050EEA2222C4EFFF1200000ED5
:10201000E66EE66AE66EE66A020EE66EE66A6AEC6E
:1020200013F00B6E060EE15E0B5012001200D9CFBA
:10203000E6FFE1CFD9FF050EE1260401220510E1FC
:1020400020511F0B00090CE10501938F030E0401C1
:10205000215D04E10501010E9F6F02D005019F6B18
:102060000401225101E011D120511F0B020801E0AF
:102070000CD124510F0B000901E107D124510F0BA2
:10208000010801E202D1200E0501805D01E0FDD0D2
:10209000938F040124BF16D024510F0BE96EEA6A16
:1020A000D890E936EA36870EE926050EEA22EECF09
:1020B000DEFFEDCFDDFF24510F0BEA6AA60FE96EBC
:1020C000050E15D024510F0BE96EEA6AD890E93657
:1020D000EA368B0EE926050EEA22EECFDEFFEDCFC3
:1020E000DDFF24510F0BEA6AA40FE96E050EEA2208
:1020F000020EEFCFDBFFD950020FE96EDACFEAFF15
:10210000EF50010B03E1000EDF9401D0DF8424BF08
:102110000BD024510F0BE96EEA6AD890E936EA3603
:10212000870EE926050E0AD024510F0BE96EEA6AE4
:10213000D890E936EA368B0EE926050EEA22DECF84
:10214000EEFFDDCFEDFF030E215D20E1DECFE9FFE5
:10215000DDCFEAFFEF50800B11E024BF07D0245100
:102160000F0BEA6AA60FE96E050E06D024510F0B7D
:10217000EA6AA40FE96E050EEA22EF82840EDECF32
:10218000E9FFDDCFEAFFE850EF127FD0DF74DECF4A
:10219000E9FFDDCFEAFFEF50800B1BE0DECFE9FF68
:1021A000DDCFEAFFEF9EDECFE9FFDDCFEAFFEF8C68
:1021B000020EE66EE66ADECFE6FFDDCFE6FF050E35
:1021C000E66EE66A6AEC13F00B6E060EE15E0B50EB
:1021D00005D0DECFE9FFDDCFEAFFEF8CDF74D95009
:1021E000020FE96EDACFEAFFEF50020B07E1DECF14
:1021F000E9FFDDCFEAFFEF50800B2BE0040124BFA5
:1022000007D024510F0BEA6AA60FE96E050E06D01F
:1022100024510F0BEA6AA40FE96E050EEA22EF9231
:102220003B0E0B6EDECFE9FFDDCFEAFFE850EF1685
:10223000020EE66EE66ADECFE6FFDDCFE6FF050EB4
:10224000E66EE66A6AEC13F00B6E060EE15E0B506A
:1022500007D03B0EDECFE9FFDDCFEAFFE850EF16F7
:10226000040124510F0B0C6A6A0F0B6E0F0E0C2227
:10227000030E0BC0DBFF040E0CC0DBFF030EDBCF35
:10228000E9FF040EDBCFEAFFEF90050EE15C02E20E
:0E229000E16AE552E16EE552E7CFD9FF120098
:02229E00DACF95
:1022A000E4FFE2CFDAFFE9CFE4FFEACFE4FFF6CFC5
:1022B000E4FFF7CFE4FFF5CFE4FFF3CFE4FFF4CF83
:1022C000E4FFFACFE4FF00EE00F00B0EE80403E3B6
:1022D000EECFE4FFFBD700EE0BF0030EE80403E3C0
:1022E000EECFE4FFFBD7E652A8EC08F0F2A40AD048
:1022F000F294A60EE66E6D0EE66E72EC16F0E552E6
:10230000E5526CD8E55200EE0DF0030EE80403E34D
:10231000E5CFEDFFFBD700EE0AF00B0EE80403E378
:10232000E5CFEDFFFBD7E5CFFAFFE5CFF4FFE5CF33
:10233000F3FFE5CFF5FFE5CFF7FFE5CFF6FFE5CFFC
:10234000EAFFE5CFE9FFE5CFDAFF1100D8CFE4FFE0
:10235000E0CFE4FFE46EDACFE4FFE652E552E5CFEA
:10236000DAFFE550E5CFE0FFE5CFD8FF100004D855
:10237000D6EC0AF0C8D8FED70F0EC112800E9B6EA5
:10238000700ED36E100ED26ED2AEFED7B50EE96EC1
:102390000F0EEA6E900EEF6E0F01010E5B6F5C6B1D
:1023A0005D6B5E6B5F6B02D81CEF08F08B849494BE
:1023B000959C7C0E9212380E9312030E9412951275
:1023C000070E9612B4EC13F009EC15F0E2EC16F0DF
:1023D0000501C86BC96BCA6BCB6B1200D9CFE6FF86
:1023E000E1CFD9FF020EE126200E0501E76E80192C
:1023F000E8AE02D0E73402D0E750805D01E279D048
:102400006050020B01E075D0AE0EE66E050EE66E72
:102410002BEC14F0E552E5520501AA0EAE6FB56B38
:10242000B66BCC0EB76F959E839E8C8C80BA02D013
:10243000B5818C9C80B402D0B5838C9C80B602D0D0
:10244000B5858C9C80B802D0B5878C9C83B002D0B7
:10245000B5898C9C80BC02D0B58B8C9C82B002D09C
:10246000B58D8C9C82B202D0B58F8C9C83BA02D081
:10247000B6818C9C83B802D0B6838C9C84B002D089
:10248000B6858C9C84B202D0B6878C9C84B402D072
:10249000B6898C9C81BA02D0B68B8C9C81B802D054
:1024A000B68D8C9C81B602D0B68F8C9C0501CA512A
:1024B000CB1102E1000E08D0CAC5E9FFCBC5EAFF87
:1024C000EF50800B01E0010E000913E10A0EE66EE9
:1024D000AE0EE66E050EE66E010EE66EE66E92EC50
:1024E00009F00B6E050EE15E0B50F3CFCAF5F4CF89
:1024F000CBF5020EE15C02E2E16AE552E16EE552E3
:10250000E7CFD9FF1200200E0501E76E8019E8AE73
:1025100002D0E73402D0E750805D01E293D06050F2
:10252000020B01E012000501C851C91102E1000EC1
:1025300008D0C8C5E9FFC9C5EAFFEF50800B01E02C
:10254000010E000901E07ED005010051370A41E08B
:10255000B40A19E0010A63E0030A02E0010A5FD04D
:102560000501CA51CB1102E1000E08D0CAC5E9FF2E
:10257000CBC5EAFFEF50800B01E0010E00094FE1EF
:102580000501810E38D00501CA51CB1102E1000EC0
:1025900008D0CAC5E9FFCBC5EAFFEF50800B01E0C8
:1025A000010E000916E10501830E406F400EE66E34
:1025B000400EE66E050EE66E010EE66EE66E92ECDD
:1025C00009F00B6E050EE15E0B50F3CFCAF5F4CFA8
:1025D000CBF50501CA51CB1102E1000E08D0CAC5E6
:1025E000E9FFCBC5EAFFEF50800B01E0010E0009C7
:1025F00016E10501370E406F400EE66E400EE66EA6
:10260000050EE66E010EE66EE66E92EC09F00B6EBC
:10261000050EE15E0B50F3CFCAF5F4CFCBF5400EBB
:10262000E66E000EE66E050EE66EE66A010EE66EDA
:1026300092EC09F00B6E050EE15E0B50F3CFC8F57E
:10264000F4CFC9F51200120012001200120030EF90
:1026500015F012001E0EE66E010EE66E5BEC09F040
:10266000E552E552400EE66E000EE66E050EE66E91
:10267000E66A010EE66E92EC09F00B6E050EE15E65
:102680000B50F3CFC8F5F4CFC9F5120005019F0533
:1026900020E10501A0051DE1A394D6DF60920501AC
:1026A000A06B0501100EB86F0E0EB96FB807000EC3
:1026B000B95BB851B911FAE16084080EB86F070E22
:1026C000B96FB807000EB95BB851B911FAE160945F
:1026D000A3841200D9CFE6FFE1CFD9FFFD0EDBCFF7
:1026E00006F0FE0EDBCF07F0050E061801E10750DD
:1026F00036E0E868061802E17F0E07182FE0030EA7
:10270000061801E1075028E0020E061801E1075003
:1027100021E0010E061801E107501AE0740E0618B8
:1027200001E1075013E0750E061801E107500CE0B7
:10273000730E061801E1075005E0720E06180FE14E
:1027400007500DD082DF0BD07EDF09D07DDF07D0B0
:1027500081DF05D07EDF03D07ADF01D077DF010E85
:08276000E552E7CFD9FF12009A
:0827680093948A9493809382FC
:1027700085808582C78EC79CBF0EC86E280EC66E28
:10278000C56AC750040B01E0010E0B6E1F0EC51485
:102790000B10F7E11200080EC66E1200D9CFE6FF4B
:1027A000E1CFD9FFC750040B01E0010E0B6E1F0EE5
:1027B000C5140B10F7E1C580C5B0FED7700EE66EEC
:1027C00032EC16F0E552FE0EDBCFE6FF32EC16F0EF
:1027D000E552FD0EDBCFE6FF32EC16F0E552C58484
:1027E000C5B4FED7E552E7CFD9FF1200D9CFE6FF37
:1027F000E1CFD9FFE652DF6AC750040B01E0010EBA
:102800000B6E1F0EC5140B10F7E1C580C5B0FED7C7
:10281000700EE66E32EC16F0E552FE0EDBCFE6FFF0
:1028200032EC16F0E552C582C5B2FED7710EE66EE7
:1028300032EC16F0E552EFEC16F0DF6EC58AC58873
:10284000C5B8FED7C584C5B4FED7DF50E552E55202
:10285000E7CFD9FF1200D9CFE6FFE1CFD9FFE6528B
:10286000060E0B6EE66E020EE66EC0DFE552E55216
:10287000E7CF0BF00BC0E7FFE75204E0E8427F0B25
:10288000E706FCE1DF6E030EE66EB0DFE5520B6E8D
:102890000C6A0BBE0C68FD0EDBCFE9FFFE0EDBCF32
:1028A000EAFFEE520BC0EEFF0CC0EDFFFD0EDBCFDA
:1028B000E9FFFE0EDBCFEAFFEE52020ED890EE36B5
:1028C000ED36E806FBE1DF500B6E0C6AFD0EDBCF48
:1028D000E9FFFE0EDBCFEAFFEE520B50EE120C507A
:1028E000ED12060E0B6EE66E040EE66E7FDFE5520D
:1028F000E552E7CF0BF00BC0E7FFE75204E0E842F8
:102900007F0BE706FCE1DF6E050EE66E6FDFE5523A
:102910000B6E0C6A0BBE0C68FD0EDBCFE9FFFE0EE2
:10292000DBCFEAFF030EE926000EEA220BC0EEFF22
:102930000CC0EDFFFD0EDBCFE9FFFE0EDBCFEAFFA3
:10294000030EE926000EEA22020ED890EE36ED368E
:10295000E806FBE1DF500B6E0C6AFD0EDBCFE9FFF2
:10296000FE0EDBCFEAFF030EE926000EEA220B5033
:10297000EE120C50ED12060E0B6EE66EE66E36DFB2
:10298000E552E552E7CF0BF00BC0E7FFE75204E05A
:10299000E8427F0BE706FCE1DF6E070EE66E26DFFE
:1029A000E5520B6E0C6A0BBE0C68FD0EDBCFE9FF27
:1029B000FE0EDBCFEAFF050EE926000EEA220BC071
:1029C000EEFF0CC0EDFFFD0EDBCFE9FFFE0EDBCF0F
:1029D000EAFF050EE926000EEA22020ED890EE3636
:1029E000ED36E806FBE1DF500B6E0C6AFD0EDBCF27
:1029F000E9FFFE0EDBCFEAFF050EE926000EEA2214
:102A00000B50EE120C50ED12E552E552E7CFD9FF14
:102A10001200D9CFE6FFE1CFD9FFE652E66AE6DE43
:102A2000E552DF6E020EDF5C01E0FFD7020EDF6EC3
:102A3000DFCFE6FF140EE66EB1DEE552E552E66A40
:102A4000110EE66EABDEE552E552E66A0B0EE66E5F
:102A5000A5DEE552E552E552E552E7CFD9FF120077
:102A6000040120511F0B010801E01200245101E074
:102A70001200060E215D1BE12351230A18E0010A12
:102A80000CE0030A14E10501810511E10501460E80
:102A9000916F2B0E926F090E06D00501A30E916F58
:102AA0002B0E926F1C0E946F956BC00E936F0401EA
:102AB0002051600BE842E842E842E842E84201085F
:102AC00001E0120021510B0A26E0080A19E0090A68
:102AD00011E0080A05E00B0A23E0080A21E01200D1
:102AE0000501CC0E916F050E926F010E946F956BE0
:102AF000C10E0FD00501800E936F23C4CCF51200D8
:102B00000501CD0E916F050E926F010E946F956BBE
:102B1000810E936F12000501800E936F22C4CDF5D4
:022B20001200A1
:0E2B22001201000200000008D8043F0002006B
:102B30000102000109022900010100C0320904005C
:102B4000000203000000092111010001221C0007FE
:102B5000058103400001070501034000010403094A
:102B6000041C034F00440052004F0049004400532E
:102B70000065006E0073006F007200000026034FB6
:102B800000440052004F0049004400200048004922
:102B90000044002000440065007600690063006581
:102BA0000000000600FF0901A101190129401501DB
:102BB0002540750895408100190129409100C034D5
:052BC0002B5D2B612BD1
:0A2BC6001E0EF66E100EF76E000EE4
:102BD000F86E05010900F550BF6F0900F550C06F90
:102BE00003E1BF6701D03DD00900F550BA6F09007D
:102BF000F550BB6F0900F550BC6F09000900F55096
:102C0000E96E0900F550EA6E090009000900F55067
:102C1000BD6F0900F550BE6F09000900F6CFC1F580
:102C2000F7CFC2F5F8CFC3F5BAC5F6FFBBC5F7FFBE
:102C3000BCC5F8FF0501BD5302E1BE5307E0090022
:102C4000F550EE6EBD07F8E2BE07F9D7C1C5F6FF35
:102C5000C2C5F7FFC3C5F8FF0501BF07000EC05B83
:042C6000BFD71200C8
:0C2C6400D9CFE6FFDACFE6FFE1CFD9FFC1
:102C7000E2CFDAFFFD0EDB50C96EC6AE02D0FF0E0A
:102C80002BD00F0EC61408080FE00F0EC6140B0849
:102C90000BE0C6889EA6FED7C750040B03E1C750C1
:102CA000010B17E0000E18D00F0EC614080804E040
:102CB0000F0EC6140B0810E1C7B0FED7C750040BA7
:102CC00001E0010E0B6E1F0EC5140B10F7E1C5AC31
:102CD00002D0FE0E01D0000EE552E5CFDAFFE7CFBD
:042CE000D9FF120006
:0C2CE400D9CFE6FFDACFE6FFE1CFD9FF41
:102CF000E2CFDAFFE652E652FC0EDBCFDEFFDBCF9F
:102D0000DDFF010EDB50D76EDF50D66EE552E55287
:0C2D1000E552E5CFDAFFE7CFD9FF120053
:042D1C00D9CFE6FF26
:102D2000DACFE6FFE1CFD9FFE2CFDAFFFD0EDB50CD
:102D30007F0BD56ED76AD66AF294FD0EDBAE02D059
:102D4000F28A01D0F29AD58EE552E5CFDAFFE7CFCD
:042D5000D9FF120095
:0C2D5400FE0EE3CFE9FFFF0EE3CFEAFF25
:102D6000E9CFF3FFEACFF4FFFB0EE35003E1FC0EE3
:102D7000E35009E0FB0EE30602E2FC0EE306FD0E63
:082D8000E350EE6EF1D71200E2
:082D8800000EF36E00EE00F0F6
:102D9000080E01D81200EA6002D0EE6AFCD7F350A8
:082DA000E9601200EE6AFCD7A5
:082DA80013EE00F023EE00F031
:102DB000F86A0A9CE3EC15F003EC08F0B7EC11F0AC
:042DC000FBD712002B
:0C2DC400820EE66E8EEC16F0E552D59AF9
:0E2DD000F294F28E120007EF08F08B741200DE
:022DDE000F0ED6
:102DE000C614080804E00F0EC6140B0801E1C586DE
:082DF000C7A0FED7C950120074
:042DF80000000000D7
:020000040030CA
:0100000021DE
:0100010008F6
:010002001FDE
:010003003EBE
:010005009169
:010006008178
:00000001FF
